:020000040800F2
:100000002404002089050008F9050008F905000806
:10001000F9050008F9050008F905000800000000CE
:10002000000000000000000000000000F9050008CA
:10003000F905000800000000F9050008F9050008AE
:10004000F9050008F9050008F9050008F905000898
:10005000F9050008F9050008F9050008F905000888
:10006000F9050008F9050008F9050008F905000878
:10007000F9050008F9050008F9050008F905000868
:10008000F9050008F9050008F9050008000000005E
:10009000000000000000000000000000F90500085A
:1000A000F9050008F9050008F9050008F905000838
:1000B000F9050008750A0008F9050008F9050008A7
:1000C000F9050008F9050008F9050008F905000818
:1000D000F9050008F9050008F9050008F905000808
:1000E000F9050008F9050008F905000800000000FE
:1000F0000000000000000000000000000000000000
:1001000000000000000000000000000000000000EF
:100110000000000000000000F9050008F9050008D3
:100120005FF808F180B584B000AF4FF001004FF0E8
:10013000010100F0B9FE07F10403184600F036F99A
:1001400040F20003C2F200031A684DF68363C4F262
:100150001B33A3FB02134FEA93439BB203F1FF331C
:100160009BB2BB804FF6FF733B814FF000037B8156
:100170004FF00003FB8007F104034FF08040194665
:1001800000F086F84FF080404FF0010100F02CF9AC
:1001900007F11007BD4680BD80B584B000AF4FF0B9
:1001A00001004FF0010100F07FFE07F10403184643
:1001B00000F0FCF840F20003C2F200031A6844F6B3
:1001C000D353C1F26203A3FB02134FEA93139BB212
:1001D00003F1FF339BB2BB804FF6FF733B814FF0BF
:1001E00000037B814FF00003FB8007F104034FF015
:1001F0008040194600F04CF84FF080404FF001016C
:1002000000F0F2F807F11007BD4680BD80B500AFE1
:100210004FF080404FF0000100F0E6F880BD00BFD5
:1002200080B584B000AF0346FB80FFF7B5FF4FF009
:1002300080439B8CFB8100BF4FF080439B8C9AB224
:10024000FB89D31A9BB2FA889A42F5D2FFF7DEFFF8
:1002500007F11007BD4680BD80B584B000AF0346EE
:10026000FB80FFF75FFF4FF080439B8CFB8100BF5B
:100270004FF080439B8C9AB2FB89D31A9BB2FA88C9
:100280009A42F5D2FFF7C2FF07F11007BD4680BDC5
:1002900080B485B000AF786039604FF00003FB8117
:1002A0007B681B88FB817A684FF43053C4F20103EA
:1002B0009A421FD07A684FF45053C4F201039A4215
:1002C00018D07B68B3F1804F14D07A684FF4806304
:1002D000C4F200039A420DD07A684FF40063C4F26E
:1002E00000039A4206D07A684FF44063C4F20003D8
:1002F0009A4208D1FB8923F07003FB813B685A883E
:10030000FB891343FB817A684FF48053C4F20003E6
:100310009A420FD07A684FF4A053C4F200039A4275
:1003200008D0FB8923F44073FB813B68DA88FB89A2
:100330001343FB817B68FA891A803B689A887B6843
:100340009A853B681A887B681A857A684FF430531F
:10035000C4F201039A421BD07A684FF45053C4F29E
:1003600001039A4214D07A684FF48043C4F2010327
:100370009A420DD07A684FF48843C4F201039A423E
:1003800006D07A684FF49043C4F201039A4204D134
:100390003B681B7A1A467B681A867B684FF001021D
:1003A0009A8207F11407BD4680BC704780B483B0C1
:1003B00000AF78607B684FF6FF729A807B684FF0E1
:1003C00000021A807B684FF00002DA807B684FF0F1
:1003D00000025A807B684FF000021A7207F10C0786
:1003E000BD4680BC704700BF80B483B000AF78606A
:1003F0000B46FB70FB78002B08D07B681B889BB2F8
:1004000043F001039AB27B681A8007E07B681B887F
:100410009BB223F001039AB27B681A8007F10C07A4
:10042000BD4680BC704700BF80B483B000AF786029
:1004300013460A467A807B707B78002B08D07B6855
:100440009B899AB27B8813439AB27B689A810AE0AF
:100450007B689B899AB27B886FEA03039BB2134047
:100460009AB27B689A8107F10C07BD4680BC704741
:1004700080B487B000AFF86079813A81FB804FF09B
:100480000003FB824FF00003BB824FF000037B822E
:10049000FB681B89FB82FB681B8BBB82FB681B8C88
:1004A0007B82FB8A23F00703FB82FA8A7B89134352
:1004B000FB82BB8A23F4407323F00303BB82BB8A15
:1004C00043F4807343F00103BB827B8A23F0220351
:1004D0007B82FB884FEA03139AB23B8913439AB29B
:1004E0007B8A13437B82FB68FA8A1A81FB68BA8A8B
:1004F0001A83FB687A8A1A8407F11C07BD4680BC00
:10050000704700BF80B485B000AF78600B467B8039
:100510004FF00003FB734FF00003BB814FF000036B
:100520007B817B681B8A9AB27B881340BB817B6886
:100530009B899AB27B8813407B81BB89002B06D0B4
:100540007B89002B03D04FF00103FB7302E04FF0D7
:100550000003FB73FB7B184607F11407BD4680BC04
:10056000704700BF80B483B000AF78600B467B80DB
:100570007B886FEA03039AB27B681A8207F10C0743
:10058000BD4680BC704700BF80B582B000AF41F26D
:100590007023C0F600037B6040F20003C2F2000348
:1005A0003B600BE07B681A683B681A603B6803F1AC
:1005B00004033B607B6803F104037B603A6840F20C
:1005C0001803C2F200039A42ECD3094809494FF0DC
:1005D00000028842B8BF40F8042BFFF6FAAF00F0E3
:1005E0000FF800F091FA07F10807BD4680BD000042
:1005F000180000202400002080B400AFFEE700BFF8
:1006000080B500AF4FF48053C4F202034FF4805220
:10061000C4F20202126842F001021A604FF48052E2
:10062000C4F202024FF48053C4F2020359684FF03F
:100630000003CFF6FF030B4053604FF48053C4F226
:1006400002034FF48052C4F20202126822F0847254
:1006500022F480321A604FF48053C4F202034FF444
:100660008052C4F20202126822F480221A604FF40F
:100670008053C4F202034FF48052C4F20202526863
:1006800022F4FE025A604FF48053C4F202034FF486
:100690001F029A604FF48053C4F202034FF000022D
:1006A000DA6200F009F84FF46D43CEF200034FF028
:1006B00000629A6080BD00BF80B500AF00F002F814
:1006C00080BD00BF80B483B000AF4FF000037B60FB
:1006D0004FF000033B604FF48053C4F202034FF429
:1006E0008052C4F20202126842F480321A604FF45F
:1006F0008053C4F202031B6803F400333B607B6841
:1007000003F101037B603B68002B03D17B68B3F5E9
:10071000A06FECD14FF48053C4F202031B6803F4C2
:100720000033002B03D04FF001033B6002E04FF099
:1007300000033B603B68012B6DD14FF48053C4F242
:1007400002034FF48052C4F2020252685A604FF41E
:100750008053C4F202034FF48052C4F20202526882
:100760005A604FF48053C4F202034FF48052C4F233
:10077000020252685A604FF48053C4F202034FF4ED
:100780008052C4F20202526822F47C125A604FF482
:100790008053C4F202034FF48052C4F20202526842
:1007A00042F498125A604FF48053C4F202034FF49B
:1007B0008052C4F20202126842F080721A6000BFD6
:1007C0004FF48053C4F202031B6803F00073002B44
:1007D000F6D04FF48053C4F202034FF48052C4F2B7
:1007E0000202526822F003025A604FF48053C4F2AE
:1007F00002034FF48052C4F20202526842F0020235
:100800005A6000BF4FF48053C4F202035B6803F0E8
:100810000C03082BF6D107F10C07BD4680BC7047CE
:1008200080B489B000AF786039604FF00003FB619D
:100830004FF000033B614FF00003BB614FF000033A
:10084000FB604FF000037B614FF00003BB603B682F
:10085000DB7803F00F03FB613B68DB7803F01003E8
:10086000002B04D03B689B78FA691343FB613B681B
:100870001B88DBB2002B4ED07B681B687B614FF07E
:100880000003BB6141E0BB694FF0010202FA03F3D0
:10089000FB603B681B881A46FB6813403B613A6962
:1008A000FB689A422DD1BB694FEA8303FB60FB686A
:1008B0004FF00F0202FA03F3BB60BB686FEA030359
:1008C0007A6913407B61FB68FA6902FA03F37A697B
:1008D00013437B613B68DB78282B07D1BB694FF062
:1008E000010202FA03F27B685A610AE03B68DB7896
:1008F000482B06D1BB694FF0010202FA03F27B6874
:100900001A61BB6903F10103BB61BB69072BBAD94B
:100910007B687A691A603B681B88FF2B53D97B6818
:100920005B687B614FF00003BB6146E0BB6903F18C
:1009300008034FF0010202FA03F3FB603B681B88D7
:100940001A46FB6813403B613A69FB689A4230D112
:10095000BB694FEA8303FB60FB684FF00F0202FAAA
:1009600003F3BB60BB686FEA03037A6913407B61E2
:10097000FB68FA6902FA03F37A6913437B613B6807
:10098000DB78282B08D1BB6903F108034FF0010283
:1009900002FA03F27B685A613B68DB78482B08D186
:1009A000BB6903F108034FF0010202FA03F27B680E
:1009B0001A61BB6903F10103BB61BB69072BB5D9A0
:1009C0007B687A695A6007F12407BD4680BC70478E
:1009D00080B483B000AF786013460A467A807B709B
:1009E0007B78002B03D07A887B681A6102E07A88D2
:1009F0007B685A6107F10C07BD4680BC704700BF99
:100A000080B483B000AF0346FB714FF46143CEF274
:100A1000000397F907204FEA5212F97901F01F01FC
:100A20004FF0010000FA01F143F8221007F10C0722
:100A3000BD4680BC704700BF80B483B000AF0346A2
:100A4000FB714FF46143CEF2000397F907204FEAA0
:100A50005212F97901F01F014FF0010000FA01F183
:100A600002F1200243F8221007F10C07BD4680BCBA
:100A7000704700BF80B500AF4FF48060C4F2000043
:100A80004FF00101FFF73EFD0346002B3BD04FF432
:100A90008060C4F200004FF00101FFF763FD40F2F7
:100AA0001403C2F200031B68002B06D140F21803A6
:100AB000C2F200034FF001021A6040F21403C2F2C6
:100AC00000034FF000021A604FF48063C4F2000389
:100AD0001B889BB203F01003002B14BF00230123DB
:100AE000DBB21A4640F21C03C2F200031A7040F255
:100AF0002003C2F200031B6803F1010240F220034D
:100B0000C2F200031A6080BD80B588B000AF4FF01C
:100B100004004FF0010100F09DF94FF001033B820A
:100B20004FF00403FB744FF00203BB7407F1100392
:100B30004FF40060C4F201001946FFF771FE4FF058
:100B4000C0033B824FF04803FB744FF00203BB74B9
:100B500007F110034FF40060C4F201001946FFF7DB
:100B60005FFE4FF003033B824FF04803FB744FF0EE
:100B70000203BB7407F110034FF40060C4F20100DC
:100B80001946FFF74DFE4FF01C033B824FF0100358
:100B9000FB744FF00203BB7407F110034FF40060C5
:100BA000C4F201001946FFF73BFE4FF008004FF07A
:100BB000010100F04FF94FF47C433B824FF01003EA
:100BC000FB744FF00203BB7407F110034FF4406055
:100BD000C4F201001946FFF723FE4FF010004FF05A
:100BE000010100F037F94FF440733B824FF01003DE
:100BF000FB744FF00203BB7407F110034FF48050F5
:100C0000C4F201001946FFF70BFE4FF002004FF04F
:100C1000010100F049F907F104031846FFF7C6FB8C
:100C20004FF004033B814FF01003FB8007F10403F6
:100C30004FF48060C4F200001946FFF729FB4FF41F
:100C40008060C4F200004FF003014FF00A024FF041
:100C50000A03FFF70DFC4FF48060C4F200004FF070
:100C600001014FF00102FFF7DFFB4FF48060C4F297
:100C700000004FF00101FFF7B7FB4FF01D00FFF739
:100C8000BFFE00F037FA00F061FA4FF010004FF0AD
:100C9000000100F015FA41F23420C0F6000000F027
:100CA00069FA4FF010004FF0010100F009FA41F22B
:100CB0004820C0F6000000F05DFA40F20003C2F2E6
:100CC00000031A684DF68363C4F21B33A3FB0213BF
:100CD0004FEA9343184600F063FA41F25020C0F601
:100CE000000000F047FA4FF01003FB610BE04FF0FB
:100CF000180000F097F94FF03E00FFF791FAFB69FA
:100D000003F1FF33FB61FB69002BF0DC40F2DC50A8
:100D1000FFF786FA4FF01003FB610BE04FF018006D
:100D200000F080F94FF03E00FFF77AFAFB6903F11B
:100D3000FF33FB61FB69002BF0DC00F007FA4FF09A
:100D40000003BB614FF000004FF0000100F0B8F964
:100D50004FF48050C4F201004FF400714FF00102D3
:100D6000FFF736FE4FF48050C4F201004FF480715B
:100D70004FF00002FFF72CFE4FF4FA70FFF750FA25
:100D800040F21803C2F200031B68002B3FD04FF063
:100D90001D00FFF751FE40F21803C2F200034FF0AE
:100DA00000021A6040F21C03C2F200031B78FB75BC
:100DB0004FF01D00FFF724FEFB7D012B08D140F210
:100DC0002003C2F200031B68BA69D31ABB6107E0B3
:100DD00040F22003C2F200031B68BA69D318BB615A
:100DE000FB7D002B06D141F25420C0F6000000F03C
:100DF000C1F905E041F25820C0F6000000F0BAF950
:100E000040F22003C2F200034FF000021A60B869FA
:100E100000F0C6F941F25C20C0F6000000F0AAF92B
:100E20004FF48050C4F201004FF400714FF0000203
:100E3000FFF7CEFD4FF48050C4F201004FF48071F3
:100E40004FF00102FFF7C4FD4FF4FA70FFF7E8F925
:100E500078E700BF80B483B000AF78600B46FB70CA
:100E6000FB78002B0CD04FF48053C4F202034FF4F4
:100E70008052C4F2020291697A680A439A610DE0D5
:100E80004FF48053C4F202034FF48052C4F20202C2
:100E900091697A686FEA02020A409A6107F10C07C9
:100EA000BD4680BC704700BF80B483B000AF78609F
:100EB0000B46FB70FB78002B0CD04FF48053C4F230
:100EC00002034FF48052C4F20202D1697A680A43E5
:100ED000DA610DE04FF48053C4F202034FF4805204
:100EE000C4F20202D1697A686FEA02020A40DA614A
:100EF00007F10C07BD4680BC704700BF80B500AF4E
:100F00004FF44060C4F201004FF480614FF00102E1
:100F1000FFF75EFD4FF00100FFF79EF94FF44060D0
:100F2000C4F201004FF480614FF00002FFF750FD62
:100F30004FF00100FFF790F980BD00BF80B582B08F
:100F400000AF0346FB71FB7903F00103002B0AD0CD
:100F50004FF44060C4F201004FF400414FF0010231
:100F6000FFF736FD09E04FF44060C4F201004FF492
:100F700000414FF00002FFF72BFDFB7903F0020365
:100F8000002B0AD04FF44060C4F201004FF48041BE
:100F90004FF00102FFF71CFD09E04FF44060C4F27E
:100FA00001004FF480414FF00002FFF711FDFB7983
:100FB00003F00403002B0AD04FF44060C4F2010098
:100FC0004FF400514FF00102FFF702FD09E04FF42A
:100FD0004060C4F201004FF400514FF00002FFF7EF
:100FE000F7FCFB7903F00803002B0AD04FF44060B4
:100FF000C4F201004FF480514FF00102FFF7E8FC0A
:1010000009E04FF44060C4F201004FF480514FF00A
:101010000002FFF7DDFCFFF771FF07F10807BD468F
:1010200080BD00BF80B582B000AF0346FB714FF4B6
:101030004060C4F201004FF400614FF00002FFF77E
:10104000C7FCFB794FEA1313DBB21846FFF776FFB4
:10105000FB791846FFF772FF4FF02800FFF7FCF806
:1010600007F10807BD4680BD80B582B000AF0346DA
:10107000FB714FF44060C4F201004FF400614FF087
:101080000102FFF7A5FCFB794FEA1313DBB2184608
:10109000FFF754FFFB791846FFF750FF4FF440600D
:1010A000C4F201004FF400614FF00002FFF790FC22
:1010B0004FF02C00FFF7D0F807F10807BD4680BDC0
:1010C00080B582B000AF786039603B68DBB24FEA30
:1010D0008313DAB27B68DBB2D318DBB2DBB263F026
:1010E0007F03DBB2DBB21846FFF79CFF07F108076E
:1010F000BD4680BD80B500AF4FF00F00FFF790F800
:101100004FF00300FFF71AFF4FF00500FFF788F8D4
:101110004FF00300FFF712FF4FF06400FFF79CF859
:101120004FF00300FFF70AFF4FF00200FFF706FF42
:101130004FF02800FFF776FF4FF00C00FFF772FF2B
:101140004FF00600FFF76EFF80BD00BF80B500AF17
:101150004FF00100FFF766FF4FF00200FFF760F865
:101160004FF00200FFF75EFF4FF00200FFF758F864
:1011700080BD00BF80B582B000AF786008E07B68BA
:101180001B787A6802F101027A601846FFF76CFF5B
:101190007B681B78002BF2D107F10807BD4680BDA4
:1011A00080B586B000AF78604FF000037B6179684E
:1011B0004CF6CD43CCF6CC43A3FB01234FEAD3023C
:1011C00013464FEA83039B184FEA4303CA1AD3B26C
:1011D00003F13003DAB207F108017B69CB181A700A
:1011E0007B6903F101037B617A684CF6CD43CCF651
:1011F000CC43A3FB02134FEAD3037B607B68002B35
:10120000D5D17B6903F1FF337B610BE007F1080265
:101210007B69D3181B781846FFF726FF7B6903F11B
:10122000FF337B617B69002BF0DA07F11807BD46BD
:1012300080BD00BF2D2048656C6C6F2053544D332A
:101240003221202D000000004350553A20000000BC
:101250004D487A003E3E20003C3C200020202020CB
:1012600020202020202020202020202000000000FE
:1012700000366E01000000000000000001020304BF
:08128000060708090100000047
:0400000508000000EF
:00000001FF
