:020000040800F2
:10000000200400208D0400088904000889040008E9
:100010008904000889040008890400080000000021
:10002000000000000000000000000000890400083B
:100030008904000800000000890400080902000883
:10004000890400088904000889040008B50700082D
:10005000890400088904000889040008890400084C
:10006000890400088904000889040008890400083C
:10007000890400088904000889040008890400082C
:10008000890400088904000889040008890400081C
:10009000890400088904000889040008890400080C
:1000A00089040008890400088904000889040008FC
:1000B00089040008890400088904000889040008EC
:1000C00089040008890400088904000889040008DC
:1000D00089040008890400088904000889040008CC
:1000E00089040008890400088904000889040008BC
:1000F00089040008890400088904000889040008AC
:10010000890400088904000889040008890400089B
:10011000890400088904000889040008890400088B
:10012000890400088904000889040008890400087B
:100130005FF808F14FF42053C4F200031A8892B21A
:1001400019B922EA000018807047104318807047E0
:100150004FF42053C4F200039A8B188B91B241EAFA
:10016000004070474FF42053C4F200039A8891B2C4
:1001700041F01002C0F3034180B29A801981988146
:100180009A8822F010010804020C9A80704700BF80
:100190004FF42052C4F20002938803F0200081B291
:1001A0000029F9D0704700BF4FF42051C4F200017C
:1001B0008B880A4623F008000304180C8880918875
:1001C00001F0080398B20028F9D070474FF420538B
:1001D000C4F200039A88198892B210EA010306D08B
:1001E000024012F0FF0F0CBF00200120704718469C
:1001F000704700BF4FF42053C4F200039A8891B2B5
:1002000021EA000098807047034B1A6812B1186801
:10021000411E1960704700BF18000020114A10B439
:1002200044F6D3531468C1F26203A3FB04214EF2D7
:1002300010038C09CEF20003013C4FF46D415C6069
:10024000CEF20001F02481F82340074A0021996092
:1002500001300721196010601368002BFCD110BC1D
:10026000704700BF1000002018000020114A10B491
:100270004DF683631468C4F21B33A3FB04214EF2D2
:1002800010038C0CCEF20003013C4FF46D415C6016
:10029000CEF20001F02481F82340074A0021996042
:1002A00001300721196010601368002BFCD110BCCD
:1002B000704700BF100000201800002048F6890396
:1002C000C8F6880370B4A3FB00425209A3FB025690
:1002D0004AF6AB247309CAF6AA24A4FB03563409D0
:1002E000C3EB0315C2EB021604EB4404A0EB86003B
:1002F000A2EB8502A3EBC40488704A700C7070BC3A
:10030000704700BF08B54FF0C050012100F026FB38
:10031000012000F0F7F8012000F0F4FA412000F08D
:100320002BFB0028FAD04FF4807000F0FBFA4FF45A
:100330008053C4F20203186A03040CD4012000F0B5
:10034000F9FAFFF731FFFFF723FF4FF40040FFF703
:1003500009FFFFF71DFF01200146FFF7EBFEBDE897
:100360000840FFF715BF00BF4FF48053C4F20203EB
:100370001968002241F0010018605968CFF6FF02A9
:100380000A405A601A68002122F0847020F48032FA
:100390001A60186882B020F480221A6058681A46E1
:1003A00020F4FE0058604FF41F0098600091019106
:1003B000196841F48030186003E00098B0F5A06F30
:1003C00009D0136803F4003101910098431C009395
:1003D00001990029F1D04FF48052C4F2020213684F
:1003E00013F400310DD001200190019A012A0CD0A4
:1003F0004FF46D40CEF200004FF00062826002B018
:1004000070470191019A012AF2D14FF40052C4F2CF
:10041000020211684FF4805341F01000106011681F
:10042000C4F2020321F0030010601068194640F086
:10043000020010605A685A60586858605A6842F45E
:10044000806058605A6822F47C1058605A6842F400
:10045000E81058601A6842F0807018600A684FF41B
:1004600080539201C4F20203F8D55968184621F06E
:1004700003025A60596841F002025A60436803F06F
:100480000C010829FAD1B3E7FEE700BF1849194B60
:1004900070B599421BD2DA1C0C1D151B164825F0AD
:1004A0000302161D05680423B3420D60C2F38002E7
:1004B0000DD022B142680823B342226007D01D58F4
:1004C0001A1D5D5084580833B3428C50F7D10B4845
:1004D0000B494FF000028842B8BF40F8042BFFF6EA
:1004E000FAAFFFF741FFBDE8704000F087B900BFE9
:1004F0000000002018000020040B00081800002055
:10050000200000202023C4F20E231860704700BF93
:10051000CA7830B4D30648BF8B7802F00F0448BFC6
:100520001C430B8813F0FF0F2FD013F00105016857
:1005300040F0EC8003F00205ADB2002D40F0D08019
:1005400003F00405ADB2002D40F0D58003F008059E
:10055000ADB2002D40F0988003F01005ADB2002D33
:1005600040F09D8003F02005ADB2002D40F0A28048
:1005700003F04005ADB2002D40F0A78003F08005E8
:10058000ADB2002D40F0CD800160FF2B28D903F4DF
:1005900080718DB24168002D2DD103F40075ADB28C
:1005A000002D33D103F48065ADB2002D39D103F4B1
:1005B0000065ADB2002D3FD103F48055ADB2002DE2
:1005C00044D103F40055ADB2002D49D103F4804568
:1005D000ADB2002D4ED103F400439BB213B941607C
:1005E00030BC7047282A64F31F7100F0B080482A9D
:1005F00008BF0361F3E721F00F01282A44EA010153
:1006000000F0A380482AC8D10561C6E721F0F001B7
:10061000282A41EA041100F09680482AC2D10561D7
:10062000C0E721F47061282A41EA042100F08980A2
:10063000482ABCD10561BAE721F47041282A41EA71
:1006400004317CD0482AB7D10561B5E721F4702187
:10065000282A41EA044170D0482AB2D10561B0E7A6
:1006600021F47001282A41EA045164D0482AADD10E
:100670000561ABE721F07061282A41EA046158D096
:10068000482AA8D10561A6E721F47041282A41EA49
:10069000043168D0482A7FF45FAF05615CE721F43C
:1006A0007021282A41EA04415BD0482A7FF45AAFDE
:1006B000056157E721F47001282A41EA045156D018
:1006C000482A7FF455AF056152E721F07061282A6E
:1006D00041EA046149D0482A7FF450AF05614DE7F3
:1006E00021F0F001282A41EA041138D0482A7FF489
:1006F00027AF056124E721F47061282A41EA04212B
:100700002BD0482A7FF422AF05611FE721F00F01AB
:10071000282A44EA01011CD0482A7FF40BAF056166
:1007200008E7282A64F31F7115D0482A08BF05611D
:100730002AE745614FE7456148E7456141E7456183
:100740003AE7456133E745612CE7456125E74361B9
:1007500045E74561EEE6456116E74561F6E6456128
:10076000EEE64561FEE64561F6E6456106E7456170
:10077000FEE600BF016170470AB94161704701613F
:10078000704700BF38B54CF6CD44CCF6CC44054696
:10079000A4FB0030C40804F1300000F05BF904EB66
:1007A0008404A5EB440505F13001C8B2BDE838402A
:1007B00000F050B910B572B60120FFF707FD01280F
:1007C000044601D062B610BDFFF714FDFFF7E0FC50
:1007D0004FF48053C4F20103DA6882F48070D86069
:1007E000FFF7B6FC0349FFF769FD03490C7062B6D9
:1007F00010BD00BF1C00002014000020F0B5042034
:1008000083B0012100F09CF84FF400601422022410
:100810000323C4F2010001A98DF80720ADF80430CC
:100820008DF80640FFF774FE4FF40060C4F201003B
:1008300001A91C254826ADF804508DF807608DF8F5
:100840000640FFF765FE0820012100F079F84FF41B
:1008500040604FF47C43102701A9C4F20100ADF8B9
:1008600004308DF807708DF80640FFF751FE3846CA
:10087000012100F065F84FF480504FF44072C4F24B
:10088000010001A98DF806404FF46144ADF8042041
:10089000CEF200048DF80770F025FFF739FE082628
:1008A000FFF730FD4FF4805084F80353C4F2010089
:1008B0004FF400712660FFF75DFF00F0F1F800F0E3
:1008C00011F90E4C0E4D2746002620780028FCD04A
:1008D0000121082000F0DCF82878FFF753FF3A20C8
:1008E00000F0B8F86878FFF74DFF3A2000F0B2F852
:1008F000A878FFF747FF3E70E7E700BF140000202D
:100900001C0000204FF481530022C4F2020301288E
:100910001A701A7004D0042801D10520187070478D
:10092000187070474FF48053C4F202031A6A1043E0
:100930001862704740F23C43C4F24223186070478B
:100940004FF48053C4F202039A6919B922EA0000F5
:100950009861704710439861704700BF4FF480530F
:10096000C4F20203DA6919B922EA0000D8617047BB
:100970001043D861704700BF4309012B0ED04FF4DC
:100980008051022BC4F202010CBF096A496A00F0CF
:100990001F0021FA00F303F0010070474FF480526A
:1009A000C4F202021168F2E710B54FF44064C4F2D9
:1009B000010401224FF480612046FFF7DDFE05208F
:1009C000FFF754FC20464FF480610022FFF7D4FE6D
:1009D0000520BDE81040FFF749BC00BF38B54FF413
:1009E0004064C4F20104054600F001024FF40041E6
:1009F0002046FFF7C1FE2046C5F340024FF4804178
:100A0000FFF7BAFE2046C5F380024FF40051FFF70E
:100A1000B3FE20464FF48051C5F3C002FFF7ACFE91
:100A2000BDE83840FFF7C0BF10B504464FF4406042
:100A30004FF400610022C4F20100FFF79DFE20097F
:100A4000FFF7CCFF2046FFF7C9FF2820BDE8104084
:100A5000FFF70CBC38B54FF44064C4F20104012226
:100A60004FF4006105462046FFF786FE2809FFF790
:100A7000B5FF2846FFF7B2FF20464FF40061002281
:100A8000FFF77AFE2C20BDE83840FFF7EFBB00BF30
:100A900000EB811060F07F01C8B2FFF7C5BF00BF57
:100AA00008B51E20FFF7BAFB0320FFF797FF0520CC
:100AB000FFF7B4FB0320FFF791FF9620FFF7D6FB6B
:100AC0000320FFF78BFF0220FFF788FF2820FFF7A6
:100AD000ABFF0C20FFF7A8FF0620BDE80840FFF79A
:100AE000A3BF00BF08B50120FFF79EFF0220FFF75C
:100AF00095FB0220FFF798FF0220BDE80840FFF7B2
:040B00008DBB00BFEA
:100B040000000000000000000102030406070809B9
:080B140000A24A0401000000E8
:0400000508000000EF
:00000001FF
