:020000040800F2
:100000001804002089030008F9030008F903000818
:10001000F9030008F9030008F903000800000000D4
:10002000000000000000000000000000F9030008CC
:10003000F903000800000000F9030008F9030008B4
:10004000F9030008F9030008F9030008F9030008A0
:10005000F9030008F9030008F9030008F903000890
:10006000F9030008F9030008F9030008F903000880
:10007000F9030008F9030008F9030008F903000870
:10008000F9030008F9030008F90300080000000064
:10009000000000000000000000000000F90300085C
:1000A000F9030008F9030008F9030008F903000840
:1000B000F9030008F9030008F9030008F903000830
:1000C000F9030008F9030008F9030008F903000820
:1000D000F9030008F9030008F9030008F903000810
:1000E000F9030008F9030008F90300080000000004
:1000F0000000000000000000000000000000000000
:1001000000000000000000000000000000000000EF
:100110000000000000000000F9030008F9030008D7
:100120005FF808F180B584B000AF4FF001004FF0E8
:10013000010101F003F907F10403184600F0E6F8A5
:1001400040F20003C2F200031A6844F6D353C1F22E
:100150006203A3FB02134FEA93139BB203F1FF3335
:100160009BB2BB804FF6FF733B814FF000037B8156
:100170004FF00003FB8007F104034FF08040194665
:1001800000F036F84FF080404FF0010100F0DCF84D
:1001900007F11007BD4680BD80B500AF4FF080402D
:1001A0004FF0000100F0D0F84FF001004FF00001D7
:1001B00001F0C4F880BD00BF80B584B000AF7860A6
:1001C000FFF7B0FF4FF080439B8C9BB2FB6000BFFA
:1001D0004FF080439B8C9BB21A46FB68D21A7B6817
:1001E0009A42F5D9FFF7D8FF07F11007BD4680BD49
:1001F00080B485B000AF786039604FF00003FB81B8
:100200007B681B88FB817A684FF43053C4F201038A
:100210009A421FD07A684FF45053C4F201039A42B5
:1002200018D07B68B3F1804F14D07A684FF48063A4
:10023000C4F200039A420DD07A684FF40063C4F20E
:1002400000039A4206D07A684FF44063C4F2000378
:100250009A4208D1FB8923F07003FB813B685A88DE
:10026000FB891343FB817A684FF48053C4F2000387
:100270009A420FD07A684FF4A053C4F200039A4216
:1002800008D0FB8923F44073FB813B68DA88FB8943
:100290001343FB817B68FA891A803B689A887B68E4
:1002A0009A853B681A887B681A857A684FF43053C0
:1002B000C4F201039A421BD07A684FF45053C4F23F
:1002C00001039A4214D07A684FF48043C4F20103C8
:1002D0009A420DD07A684FF48843C4F201039A42DF
:1002E00006D07A684FF49043C4F201039A4204D1D5
:1002F0003B681B7A1A467B681A867B684FF00102BE
:100300009A8207F11407BD4680BC704780B483B061
:1003100000AF78607B684FF6FF729A807B684FF081
:1003200000021A807B684FF00002DA807B684FF091
:1003300000025A807B684FF000021A7207F10C0726
:10034000BD4680BC704700BF80B483B000AF78600A
:100350000B46FB70FB78002B08D07B681B889BB298
:1003600043F001039AB27B681A8007E07B681B8820
:100370009BB223F001039AB27B681A8007F10C0745
:10038000BD4680BC704700BF80B582B000AF42F66A
:100390001013C0F600037B6040F20003C2F20003BA
:1003A0003B600BE07B681A683B681A603B6803F1AE
:1003B00004033B607B6803F104037B603A6840F20E
:1003C0001403C2F200039A42ECD3094809494FF0E2
:1003D00000028842B8BF40F8042BFFF6FAAF00F0E5
:1003E0000FF800F0E3FC07F10807BD4680BD0000F0
:1003F000140000201400002080B400AFFEE700BF0E
:1004000080B500AF4FF48053C4F202034FF4805222
:10041000C4F20202126842F001021A604FF48052E4
:10042000C4F202024FF48053C4F2020359684FF041
:100430000003CFF6FF030B4053604FF48053C4F228
:1004400002034FF48052C4F20202126822F0847256
:1004500022F480321A604FF48053C4F202034FF446
:100460008052C4F20202126822F480221A604FF411
:100470008053C4F202034FF48052C4F20202526865
:1004800022F4FE025A604FF48053C4F202034FF488
:100490001F029A604FF48053C4F202034FF000022F
:1004A000DA6200F009F84FF46D43CEF200034FF02A
:1004B00000629A6080BD00BF80B500AF00F002F816
:1004C00080BD00BF80B483B000AF4FF000037B60FD
:1004D0004FF000033B604FF48053C4F202034FF42B
:1004E0008052C4F20202126842F480321A604FF461
:1004F0008053C4F202031B6803F400333B607B6843
:1005000003F101037B603B68002B03D17B68B3F5EB
:10051000A06FECD14FF48053C4F202031B6803F4C4
:100520000033002B03D04FF001033B6002E04FF09B
:1005300000033B603B68012B6DD14FF48053C4F244
:1005400002034FF48052C4F2020252685A604FF420
:100550008053C4F202034FF48052C4F20202526884
:100560005A604FF48053C4F202034FF48052C4F235
:10057000020252685A604FF48053C4F202034FF4EF
:100580008052C4F20202526822F47C125A604FF484
:100590008053C4F202034FF48052C4F20202526844
:1005A00042F498125A604FF48053C4F202034FF49D
:1005B0008052C4F20202126842F080721A6000BFD8
:1005C0004FF48053C4F202031B6803F00073002B46
:1005D000F6D04FF48053C4F202034FF48052C4F2B9
:1005E0000202526822F003025A604FF48053C4F2B0
:1005F00002034FF48052C4F20202526842F0020237
:100600005A6000BF4FF48053C4F202035B6803F0EA
:100610000C03082BF6D107F10C07BD4680BC7047D0
:1006200080B489B000AF786039604FF00003FB619F
:100630004FF000033B614FF00003BB614FF000033C
:10064000FB604FF000037B614FF00003BB603B6831
:10065000DB7803F00F03FB613B68DB7803F01003EA
:10066000002B04D03B689B78FA691343FB613B681D
:100670001B88DBB2002B4ED07B681B687B614FF080
:100680000003BB6141E0BB694FF0010202FA03F3D2
:10069000FB603B681B881A46FB6813403B613A6964
:1006A000FB689A422DD1BB694FEA8303FB60FB686C
:1006B0004FF00F0202FA03F3BB60BB686FEA03035B
:1006C0007A6913407B61FB68FA6902FA03F37A697D
:1006D00013437B613B68DB78282B07D1BB694FF064
:1006E000010202FA03F27B685A610AE03B68DB7898
:1006F000482B06D1BB694FF0010202FA03F27B6876
:100700001A61BB6903F10103BB61BB69072BBAD94D
:100710007B687A691A603B681B88FF2B53D97B681A
:100720005B687B614FF00003BB6146E0BB6903F18E
:1007300008034FF0010202FA03F3FB603B681B88D9
:100740001A46FB6813403B613A69FB689A4230D114
:10075000BB694FEA8303FB60FB684FF00F0202FAAC
:1007600003F3BB60BB686FEA03037A6913407B61E4
:10077000FB68FA6902FA03F37A6913437B613B6809
:10078000DB78282B08D1BB6903F108034FF0010285
:1007900002FA03F27B685A613B68DB78482B08D188
:1007A000BB6903F108034FF0010202FA03F27B6810
:1007B0001A61BB6903F10103BB61BB69072BB5D9A2
:1007C0007B687A695A6007F12407BD4680BC704790
:1007D00080B483B000AF786013460A467A807B709D
:1007E0007B78002B03D07A887B681A6102E07A88D4
:1007F0007B685A6107F10C07BD4680BC704700BF9B
:1008000080B584B000AF0346FB7100BF4FF4405089
:10081000C4F201004FF0020100F05CFE0346002B21
:10082000F4D0FB799BB24FF44050C4F2010019465A
:1008300000F012FE00BF4FF44050C4F201004FF030
:10084000010100F047FE0346002BF4D04FF4405066
:10085000C4F2010000F00EFE0346FB73FB7B18465A
:1008600007F11007BD4680BD80B582B000AF0346DA
:10087000FB804FF40060C4F201004FF004014FF020
:100880000002FFF7A5FF4FF07000FFF7B9FFFB88EC
:100890004FEA13239BB2DBB21846FFF7B1FFFB8888
:1008A000DBB21846FFF7ACFF4FF40060C4F2010062
:1008B0004FF004014FF00102FFF78AFF07F108072C
:1008C000BD4680BD80B582B000AF4FF40060C4F279
:1008D00001004FF004014FF00002FFF779FF4FF0E5
:1008E0007300FFF78DFF4FF00000FFF789FF4FF017
:1008F0000000FFF785FF0346FB80FB884FEA0323D8
:10090000FB804FF00000FFF77BFF03461A46FB8891
:100910001343FB804FF40060C4F201004FF0040168
:100920004FF00102FFF754FFFB88184607F1080754
:10093000BD4680BD80B582B000AF0346FB804FF45A
:100940000060C4F201004FF004014FF00002FFF715
:100950003FFF4FF07200FFF753FFFB884FEA13236E
:100960009BB2DBB21846FFF74BFFFB88DBB21846A1
:10097000FFF746FF4FF40060C4F201004FF004019E
:100980004FF00102FFF724FF07F10807BD4680BDC5
:1009900080B584B000AF0346FB80FB881846FFF7A4
:1009A00063FFFFF78FFF0346FB81FB89184607F1C2
:1009B0001007BD4680BD00BF80B582B000AF0246C3
:1009C0000B46FA80BB80FB881846FFF74DFFBB88BB
:1009D0001846FFF7AFFF07F10807BD4680BD00BF0F
:1009E00080B582B000AF02460B46FA80BB80BB8860
:1009F000C3F1EF039BB24FF020001946FFF7DCFF75
:100A0000FB884FF021001946FFF7D6FF07F10807D2
:100A1000BD4680BD80B582B000AF0346FB80FB8839
:100A20004FEA13239BB2DBB21846FFF7E9FEFB88BF
:100A3000DBB21846FFF7E4FE07F10807BD4680BDAC
:100A400080B582B000AF13460246FA800A46BA80EB
:100A50007B80FA88BB8810461946FFF7C1FF7B8868
:100A60004FF022001946FFF7A7FF07F10807BD4620
:100A700080BD00BF80B584B000AF0346FB804FF05F
:100A80000003FB604FF020004FF00001FFF794FFE0
:100A90004FF021004FF00001FFF78EFF4FF02200D2
:100AA000FFF7E2FE4FF40060C4F201004FF00401D2
:100AB0004FF00002FFF78CFE4FF07200FFF7A0FE30
:100AC0004FF00003FB6007E0FB881846FFF7A2FF2A
:100AD000FB6803F10103FB60FA6842F6FF33C0F2E2
:100AE00001039A42F0D94FF40060C4F201004FF0C4
:100AF00004014FF00102FFF76BFE07F11007BD463E
:100B000080BD00BF80B483B000AF13460246FA71C7
:100B10000A46BA717B71FB794FEAD303DBB24FEA25
:100B2000C3239AB2BB794FEA9303DBB24FEA431374
:100B30009BB213439AB27B794FEAD303DBB21343E0
:100B40009BB29BB2184607F10C07BD4680BC7047AC
:100B500090B482B000AF78600B46FB70FB78A3F1D5
:100B600020034FEA031241F27063C0F60003D2186B
:100B70007B68146850689168D2681C6058609960FE
:100B8000DA6007F10807BD4690BC704780B588B0B1
:100B900000AFF880B980FA703B8007F10802FB785B
:100BA00010461946FFF7D4FF4FF00003FB832DE0FA
:100BB000FB8B07F12002D31813F8183CFB764FF09B
:100BC0000003BB831BE0FA7EBB8BC3F1070342FA31
:100BD00003F303F00103002B0DD0FA88BB8BD3186D
:100BE00099B2BA88FB8BD3189AB23B880846114653
:100BF0001A46FFF725FFBB8B03F10103BB83BB8BB9
:100C0000072BE0D9FB8B03F10103FB83FB8B0F2B3D
:100C1000CED907F12007BD4680BD00BF90B589B091
:100C200002AFBA600246FA810A46BA81FB80BB680D
:100C30001B78FB82BB6803F10103BB60FB8ADAB25D
:100C4000F889B989FB883C8D0094FFF79FFFFA89EA
:100C500040F237139A4204D8FB8903F10803FB8161
:100C600010E0BB89DF2B07D84FF00003FB81BB8965
:100C700003F11003BB8105E04FF00003FB814FF04F
:100C80000003BB81BB681B78002BD0D107F11C0788
:100C9000BD4690BD2DE9F04387B000AFF880B98024
:100CA0007A803B806B461E4679880B4603F1FF3302
:100CB000FB608AB24FF000034FEA52704FEAC3095B
:100CC00040EA09094FEAC2088AB24FF000034FEA2E
:100CD00052704FEAC30505434FEAC2040B4603F1C5
:100CE00007034FEAD3034FEAC303ADEB030D6B4693
:100CF00003F10003BB604FF00003FB824CE0B968D6
:100D0000FB8A4FF01A0202FB03F241F66043C0F681
:100D10000003D2187B88084611461A4600F0FAFBF9
:100D20004FF00003BB822FE04FF000037B8224E0F2
:100D3000BB8ABA68D35C1A467B8AC3F1070342FABE
:100D400003F303F00103002B13D0BB8A4FEAC30364
:100D50009AB2FB88D3189AB27B8AD31899B2BA8810
:100D6000FB8AD3189AB2BB8F084611461A46FFF782
:100D700067FE7B8A03F101037B827B8A072BD7D92D
:100D8000BB8A03F10103BB82BA8A7B889A42CBD328
:100D9000FB8A03F10103FB82FA8A3B889A42AED3B5
:100DA000B54607F11C07BD46BDE8F08390B58BB092
:100DB00002AF4FF004004FF0010100F095FA4FF43C
:100DC00080504FF0010100F08FFA4FF00303BB7623
:100DD0004FF0A0033B834FF01803FB7607F1180395
:100DE0004FF40060C4F201001946FFF719FC4FF000
:100DF00040033B834FF00003FB7607F118034FF4E9
:100E00000060C4F201001946FFF70AFC4FF00C0322
:100E10003B834FF01003FB7607F118034FF400609B
:100E2000C4F201001946FFF7FBFB4FF010004FF032
:100E3000010100F059FA4FF440733B834FF0100367
:100E4000FB7607F118034FF48050C4F201001946F5
:100E5000FFF7E6FB4FF48273FB804FF000033B8209
:100E60004FF00003BB804FF002037B814FF0000383
:100E7000BB814FF00703BB824FF000033B814FF073
:100E800000037B824FF40073FB8107F104034FF4EE
:100E90004050C4F20100194600F07AFA4FF4405075
:100EA000C4F201004FF4807100F0F2FA4FF44050A8
:100EB000C4F201004FF0010100F0AEFA4FF40060FF
:100EC000C4F201004FF008014FF00102FFF780FC6F
:100ED0004FF00100FFF770F94FF40060C4F2010019
:100EE0004FF008014FF00002FFF772FC4FF00A00CC
:100EF000FFF762F94FF40060C4F201004FF00801FF
:100F00004FF00102FFF764FC4FF03200FFF754F995
:100F10004FF00000FFF73CFD0346FB834FF000005D
:100F20004FF00001FFF748FD4FF001004FF48071D2
:100F3000FFF742FD4FF002004FF4E061FFF73CFD88
:100F40004FF0030041F20801FFF736FD4FF00400B7
:100F50004FF00001FFF730FD4FF0080040F2022192
:100F6000FFF72AFD4FF009004FF00001FFF724FDC5
:100F70004FF00A004FF00001FFF71EFD4FF00C008C
:100F80004FF00101FFF718FD4FF00D004FF0000189
:100F9000FFF712FD4FF00F004FF00001FFF70CFDBF
:100FA0004FF03200FFF708F94FF0070040F201114F
:100FB000FFF702FD4FF03200FFF7FEF84FF0100090
:100FC0004FF48651FFF7F8FC4FF011004FF0070186
:100FD000FFF7F2FC4FF012004FF48871FFF7ECFCC2
:100FE0004FF013004FF43061FFF7E6FC4FF029009B
:100FF0004FF00001FFF7E0FC4FF02B004FF4804171
:10100000FFF7DAFC4FF050004FF00001FFF7D4FC7F
:101010004FF051004FF0EF01FFF7CEFC4FF05200C0
:101020004FF00001FFF7C8FC4FF0530040F23F11B2
:10103000FFF7C2FC4FF03200FFF7BEF84FF0600040
:101040004FF41C51FFF7B8FC4FF061004FF0010165
:10105000FFF7B2FC4FF06A004FF00001FFF7ACFC65
:101060004FF080004FF00001FFF7A6FC4FF0810029
:101070004FF00001FFF7A0FC4FF082004FF000019D
:10108000FFF79AFC4FF083004FF00001FFF794FC4C
:101090004FF084004FF00001FFF78EFC4FF0850009
:1010A0004FF00001FFF788FC4FF090004FF0100167
:1010B000FFF782FC4FF092004FF00001FFF77CFC3D
:1010C0004FF093004FF00101FFF776FC4FF09500D1
:1010D0004FF48871FFF770FC4FF097004FF000015C
:1010E000FFF76AFC4FF098004FF00001FFF764FC37
:1010F0004FF0070040F23311FFF75EFC4FF0640041
:10110000FFF75AF84FF00000FFF742FC0346FB835D
:10111000FB8B002B02D14FF4007301E04FF480737E
:101120004FF48050C4F2010019464FF00102FFF75E
:101130004FFB4FF00000FFF79DFC4FF0FF004FF01A
:1011400000014FF00002FFF7DDFC03464FF0000006
:101150004FF000011A46FFF773FC4FF000004FF00C
:1011600000014FF0FF02FFF7CDFC034640F23F10B5
:101170004FF0EF011A46FFF763FC4FF0FF004FF00E
:1011800000014FF0FF02FFF7BDFC03461C464FF085
:1011900000004FF000014FF00002FFF7B3FC0346E0
:1011A00000934FF00A004FF00A0142F69002C0F699
:1011B00000022346FFF732FD4FF000004FF0FF0121
:1011C0004FF0FF02FFF79EFC03461C464FF0200045
:1011D0004FF040014FF02002FFF794FC03460093CC
:1011E0004FF00A004FF0260142F6A002C0F60002BE
:1011F0002346FFF713FD4FF0FF004FF0FF014FF0C4
:101200000002FFF77FFC03461C464FF000004FF042
:1012100000014FF00002FFF775FC034600934FF00A
:1012200028004FF03C0142F6C802C0F600022346F7
:10123000FFF7F4FC4FF0FF004FF080014FF0000289
:10124000FFF760FC03461C464FF000004FF0000122
:101250004FF00002FFF756FC034600934FF03200B8
:101260004FF0500142F6E802C0F600022346FFF7B5
:10127000D5FC4FF000004FF0A2014FF0E802FFF75D
:1012800041FC03461A4641F66043C0F60003009352
:1012900001924FF078004FF078014FF01A024FF0B2
:1012A0007803FFF7F7FC4FF0FF004FF037014FF0E6
:1012B0003702FFF727FC03461C464FF020004FF093
:1012C00040014FF01002FFF71DFC034600934FF062
:1012D00014004FF0BE0142F60412C0F6000223468D
:1012E000FFF79CFCFEE700BF80B483B000AF7860DE
:1012F0000B46FB70FB78002B0CD04FF48053C4F2EC
:1013000002034FF48052C4F2020291697A680A43E0
:101310009A610DE04FF48053C4F202034FF48052FF
:10132000C4F2020291697A686FEA02020A409A6185
:1013300007F10C07BD4680BC704700BF80B483B086
:1013400000AF78600B46FB70FB78002B0CD04FF49D
:101350008053C4F202034FF48052C4F20202D169F6
:101360007A680A43DA610DE04FF48053C4F2020355
:101370004FF48052C4F20202D1697A686FEA020225
:101380000A40DA6107F10C07BD4680BC704700BF18
:1013900080B485B000AF786039604FF00003FB8106
:1013A0007B681B88FB81FB8903F44153FB813B680D
:1013B0001A883B685B8813439AB23B689B88134347
:1013C0009AB23B68DB8813439AB23B681B8913438C
:1013D0009AB23B685B8913439AB23B689B8913437B
:1013E0009AB23B68DB8913439AB2FB891343FB81B2
:1013F0007B68FA891A807B689B8B9BB223F400631D
:101400009AB27B689A833B681A8A7B681A8207F1D2
:101410001407BD4680BC704780B483B000AF7860CD
:101420000B46FB70FB78002B08D07B681B889BB2B7
:1014300043F040039AB27B681A8007E07B681B8800
:101440009BB223F040039AB27B681A8007F10C0725
:10145000BD4680BC704700BF80B483B000AF7860E9
:101460000B467B807B687A889A8107F10C07BD4622
:1014700080BC704780B483B000AF78607B689B8984
:101480009BB2184607F10C07BD4680BC704700BFF1
:1014900080B483B000AF78600B467B807A884FF6CB
:1014A000FF639A4208D07B681B889BB243F4807329
:1014B0009AB27B681A8007E07B681B889BB223F492
:1014C00080739AB27B681A8007F10C07BD4680BC16
:1014D000704700BF80B485B000AF78600B467B805A
:1014E0004FF00003FB737B681B899AB27B88134023
:1014F0009BB2002B03D04FF00103FB7302E04FF0CF
:101500000003FB73FB7B184607F11407BD4680BC44
:10151000704700BF0F2A2DE9F00340F2A18041EA95
:1015200000039B0740F09E800C68A2F11005046048
:101530004B68AC4643608C68BCF10F0F8460CC688C
:10154000C5F30015C46000F1100301F110042BD99C
:1015500075B12568ACF1100C1D6065685D60A5680B
:101560009D60E5681034DD601033BCF10F0F1BD9AE
:10157000276804F110061F60676803F110055F60BB
:10158000A768ACF1200C9F60E768DF6024691C61EC
:10159000776806F110046F60B7682033AF60F668B3
:1015A000BCF10F0FEE60E3D8A2F1100828F00F0392
:1015B00002F00F0403F1100C032C00EB0C0301EB01
:1015C0000C0851D9211F4FEA9109444608EB890CB8
:1015D00054F8046BC8EB0C010CF1040C1D46644577
:1015E00045F8046BC1F3800112D029B154F8041BF3
:1015F000644545F8041B0BD0274657F8041B2E46BC
:1016000046F8041B64686C603C1D351D6445F3D1CD
:1016100009F1010C4FEA8C0902F0030208EB090101
:101620004B44D2B10D789A18DC4303F8015B1419CE
:10163000934204F0010410D02CB111F8014F03F8CB
:10164000014B934209D04D781C4604F8015B8D781C
:1016500002315D70631C9342F5D1BDE8F003704721
:101660000346DEE70346DDE741462246D9E700BFF1
:10167000000000000000000000000000000000006A
:10168000001010101010101010100000181800009A
:1016900036244800000000000000000000000000A8
:1016A0000024242424FE48484848FC484848480070
:1016B00010385492925030181412929254381000EC
:1016C0000062929494680810202C5252928C000070
:1016D000003048484848302054948888946200007C
:1016E000303010200000000000000000000000006A
:1016F00004081010202020202020201010080400B2
:1017000040201010080808080808081010204000A1
:10171000000000109254381038549210000000005D
:1017200000000000101010FE10101000000000005B
:101730000000000000000000000000303010200019
:10174000000000000000007C00000000000000001D
:101750000000000000000000000000003030000029
:10176000000202040408081020204040808000008D
:1017700000304884848484848484848448300000D5
:101780000010701010101010101010101010000029
:1017900000304884840408081020204080FC0000A9
:1017A00000304884840408300804848448300000F1
:1017B00000080818182828484888FC08080800006D
:1017C00000FC808080B0C884040404844830000099
:1017D000003048848480B0C8848484844830000009
:1017E00000FC04040808081010102020202000002D
:1017F0000030488484844830488484844830000021
:10180000003048848484844C34048484483000004C
:101810000000000000303000000000303000000008
:1018200000000000003030000000003030102000C8
:101830000000040810204080402010080400000030
:1018400000000000007C0000007C000000000000A0
:101850000000804020100804081020408000000094
:10186000003048848404081020200000303000003C
:10187000003844829AAAAAAAAAAA9C80423C0000E4
:10188000001010282828284444447C8282820000CA
:1018900000F88482828284F88482828284F8000044
:1018A00000384482828080808080828244380000B8
:1018B00000F88482828282828282828284F800009E
:1018C00000FE8080808080FC8080808080FE000020
:1018D00000FE8080808080FC80808080808000008E
:1018E00000384482828080808E828282463A000064
:1018F00000828282828282FE8282828282820000D2
:1019000000381010101010101010101010380000B7
:101910000004040404040404040484844830000023
:1019200000828484889090A0D0888884828200007D
:1019300000808080808080808080808080FE0000A9
:10194000008282C6C6C6C6AAAAAAAA92929200001D
:10195000008282C2C2A2A292928A8A8686820000F5
:1019600000384482828282828282828244380000ED
:1019700000F88482828284F88080808080800000E9
:1019800000384482828282828282928A443A0000B3
:1019900000F88482828284F88888848482820000AD
:1019A0000038448282806018040282824438000039
:1019B00000FE101010101010101010101010000069
:1019C0000082828282828282828282824438000005
:1019D00000828282444444442828281010100000C9
:1019E0000092929292AAAAAAAA44444444440000B3
:1019F000008282444428281028284444828200001F
:101A0000008282444428281010101010101000008A
:101A100000FE0204040808102020404080FE000060
:101A20007C404040404040404040404040407C007E
:101A3000008282444428287C10107C101010000082
:101A40007C040404040404040404040404047C006A
:101A5000102844000000000000000000000000000A
:101A6000000000000000000000000000000000FF77
:101A700030301020000000000000000000000000D6
:101A80000000000000007884043C44848C76000050
:101A9000008080808080B8C482828282C4B80000C6
:101AA0000000000000003C4280808080423C00003A
:101AB0000002020202023A4682828282463A000014
:101AC000000000000000384482FE8080423C00009C
:101AD000001820202020F820202020202020000096
:101AE0000000000000003A444438407C82827C00C0
:101AF000008080808080B8C48282828282820000DE
:101B00000000101000001010101010101010000035
:101B100000001010000010101010101010106000C5
:101B2000008080808080848890A0D088848200009B
:101B300000101010101010101010101010100000D5
:101B4000000000000000ACD29292929292920000AB
:101B5000000000000000B8C48282828282820000FD
:101B60000000000000003844828282824438000075
:101B7000000000000000B8C4828282C4B8808000E7
:101B80000000000000003A46828282463A020200CB
:101B90000000000000002E30202020202020000027
:101BA0000000000000007C8280601C02827C00003B
:101BB000000020202020F8202020202020180000D5
:101BC000000000000000828282828282463A000089
:101BD0000000000000008282444428281010000009
:101BE000000000000000929292AAAA44444400001F
:101BF00000000000000082442810102844820000E9
:101C00000000000000008282444428281020C00008
:101C1000000000000000FE040810204080FE0000CC
:101C20001C101010101010201010101010101C009C
:101C300010101010101010101010101010101010A4
:101C400070101010101010081010101010107000EC
:101C50006498000000000000000000000000000088
:101C60000000000000000000000000000000000074
:101C700001FFFC0000000000000000000000000068
:101C8000000000000000000000000F80078000003E
:101C90000000000000000000000000000000000044
:101CA00000000000780000E00000000000000000DC
:101CB0000000000000000000000000000000E00044
:101CC00000380000000000000000000000000000DC
:101CD00000000000000000030000000C00000000F5
:101CE00000000000000000000000000000000000F4
:101CF000000C0000000200000000000000000000D6
:101D000000000000000000000000001800000001BA
:101D10008000000000000000000000000000000043
:101D20000000000000200000000040000000000053
:101D3000000000000000000000000000000000C0E3
:101D40000000000020000000000000000000000073
:101D500000000000000000000180000000001000F2
:101D60000000000000000000000000000000000073
:101D70000000030000000000100000000000000050
:101D8000000000000000000000000000060000004D
:101D9000000008000000000000000000000000003B
:101DA0000000000000000C00000000000C0000001B
:101DB0000000000000000000000000000000000023
:101DC0000800000000000400000000000000000007
:101DD00000000000000000000000100000000000F3
:101DE00006000000000000000000000000000000ED
:101DF00000000000200000000000020000000000C1
:101E00000000000000000000000000000000600072
:101E100000000000030000000000000000000000BF
:101E2000000000000000000040000000000003006F
:101E300000000000000000000000000000000000A2
:101E40000000C000000000000300000000000000CF
:101E50000000000000000000000000008000000002
:101E6000000003000000000000000000000000006F
:101E7000000000000001000000000000030000005E
:101E80000000000000000000000000000000000151
:101E9000000000000000030000000000000000003F
:101EA000000000000000000000030000000000002F
:101EB000030000000000000000000000000000001F
:101EC000000000020000000000000300000000000D
:101ED0000000000000000000000000000002000000
:101EE00000000000030000000000000000000000EF
:101EF00000000000000000020000000000000200DE
:101F000000000000000000000000000000000000D1
:101F100000040000000000000200000000000000BB
:101F20000000000000000000000000041800000095
:101F3000000002000000000000000000000000009F
:101F40000000000000040E00000000000600000079
:101F50000000000000000000000000000000000C75
:101F600023800000000006000000000000000000C8
:101F70000000000000000000000C187000000000CD
:101F8000060000000000000000000000000000004B
:101F9000000000080C180000000004000000000011
:101FA000000000000000000000000000000C03061C
:101FB000000000000400000000000000000000001D
:101FC000000000000000000800C1800000000C00BC
:101FD0000000000000000000000000000000000001
:101FE00000081C70700000000800000000000000E5
:101FF000000000000000000000000018231C1E006C
:1020000000000800000000000000000000000000C8
:1020100000000000001E61C7060000001000000064
:10202000000000000000000000000000000000238D
:1020300020308000000010000000000000000000C0
:1020400000000000000000000020801C0000C00014
:102050002000000000000000000000000000000060
:102060000000003030060003800020000000000067
:1020700000000000000000000000000000501801F7
:1020800080063800E00000000000000000000000B2
:1020900000000000000000880C004018E003B000C1
:1020A0000000000000000000000000000000000030
:1020B000004C07002031800C1800000000000000D8
:1020C0000000000000000000000000460380100235
:1020D0000011D80000000000000000000000000017
:1020E00000000000004301400804100768000000E1
:1020F0000000000000000000000000000000004997
:1021000000A00408FC1848000000000000000000C7
:102110000000000000000000005C805803118421D2
:10212000D8000000000000000000000000000000D7
:1021300000000022402801A2082110000000000039
:102140000000000000000000000000000061301CE2
:1021500000C4183130000000000000000000000042
:102160000000000000000020C803006410192000D7
:1021700000000000000000000000000001FC000062
:1021800000506401C038200B600000000000000017
:102190000000000000001FFFE00000281A000018E7
:1021A000201EC00000000000000000000000000031
:1021B0007FFFFF8000240700000C603080000000DB
:1021C00000000000000000000000FFFFFFF80022F8
:1021D0000080000660418000000000000000000058
:1021E00000000001FFFFFFFFC01D80600002604390
:1021F0000000000000000000000000000003FFFFDE
:10220000FFFFFFF2C02000002026000000000000B9
:10221000000000000000000FFFFFFFFFFFF12000A3
:102220000000200C00000000000000000000000082
:10223000001FFFFFFFFFFFE89000000020380000B4
:1022400000000000000000000000003FFFFFFFFF53
:10225000FFE44C00000030400000000000000000DF
:1022600000000000006003FFFFFFFFE436000000F5
:10227000108000000000000000000000000000804E
:1022800000FFFFFFFFF21A000000108000000000B6
:1022900000000000000000000300000FFFFFFFF23D
:1022A00005000000088000000000000000000000A1
:1022B000000006000001FFFFFFF10300000009C05D
:1022C0000000000000000000000000000C00000002
:1022D0003FFFFFF08000000009C000000000000088
:1022E000000000000000180000001FFFFFF0C00009
:1022F000000009E0000000000000000000000000F5
:102300003000000007FFFFF0400000000BF8000065
:10231000000000000000000000004000000001FF7D
:10232000FFF0200000000BFE000000000000000095
:10233000000000008000000000FFFFF0100000001F
:1023400007FFC000000000000000000000030000C4
:102350000400003FFFF10800000007FFF800000044
:10236000000000000000000602A00C00000FFFF0BB
:10237000E400000007FFFE00000000000000000075
:102380000019FFF008000007FFF83200000007FF07
:10239000FF00000000000000000000230010080003
:1023A00000E0FFF80A00000007FFFF8000000000C7
:1023B0000000000000FE00301807FFC01FF80700F3
:1023C000000007FFFFC00000000000000000032421
:1023D00000101038000003FC0180000007FFFFF030
:1023E00000000000000000000ECDFFF030E0000013
:1023F000007C6080000007FFFFF800000000000084
:10240000000038998A802180F800000E60400000AA
:1024100007FFFFFE0000000000000001E1F00000E7
:10242000430FFFF000070040000003FFFFFF000024
:10243000000000000003800000008478003FFFF8E7
:102440008020000003FFFFFFC00000000000001C10
:102450000000000199C0000000007FF0000003FFB1
:10246000FFFFF00000000000003000000001B3009A
:10247000000000000290000001FFFFFFFC000000D0
:10248000000000C00000000126000000000000085D
:10249000000001FFFFFFFF000000000001800000BE
:1024A0000001480000000000007C000000FFFFFF6A
:1024B000FFE00000000006005D00000330000000A7
:1024C0007F5D53C2000000FFFFFFFFF80000000027
:1024D0000801EBFFD002200000CF8082BE03000085
:1024E000007FFFFFFFFC000000003003000130060A
:1024F0000000073D5C00001D0000007FFFFFFFFFA4
:1025000000000000C0000000600600000C200FFF6B
:10251000FFF08000003FFFFFFFFF8000000700008A
:102520000001C00400007980000000004000003F6E
:10253000C001FFFFC000003800000C0300040003CE
:10254000E80000000000200000C800001FFFE000BD
:1025500000600000F81E000C003F000000000000BA
:1025600010000188000003FFF00000800E0183E0EE
:10257000000800600000000000E008000604000001
:1025800000FFF800010007FF7F00001800000000B6
:1025900000000F800C001C040000007FF800030006
:1025A0000000800000100000000000003800000063
:1025B00030020000003FFC00060000000000001098
:1025C000000000000007C0000C00C0020000003F37
:1025D000FC0038000000000000200000000000782F
:1025E0000000380380030000001FFE00C000000050
:1025F000000000200000000001C00000F40E0001F7
:102600000000000FFF001F0000000000002000007D
:10261000000003000003A438000180000007FF0051
:102620006190000000000040000000000000001E5B
:1026300061E0000080000003FF00805800000000FF
:10264000004000000000000001F8270000008000AA
:102650000001FF0000240000000000C00000000096
:10266000000007003C00000041000000FF000012D5
:1026700000000000008000000000000000002000BA
:10268000000062C000007F00000300000000008026
:102690000000000000000000200000002480000076
:1026A0003F0000010000000000800000000000006A
:1026B000000020000000298000003F000001800091
:1026C00000000100000000000000000010000000F9
:1026D000110000001F000000800000000100000049
:1026E00000000000000010000000320000000F0099
:1026F0000000400000000100000000000000000099
:1027000010000000160000000F0000004000000054
:102710000300000000000000000010000000140092
:1027200000008700000040000000020000000000E0
:1027300000000000100000001C005FFF47000000C8
:10274000200000000200000000000000000008005F
:102750000000080FE80043000018300000000600E9
:1027600000000000000000000800000008740001E4
:102770008100000C100000001C00000000000000A0
:10278000000008000000098000060100000410009D
:102790000000740000000000000000000C000000B9
:1027A0000501557C000000021800000BCC00000061
:1027B00000000000000008000000063FAA800000A2
:1027C00000010800007C0803000000000000000079
:1027D0000400000002C00000010000008C00018025
:1027E00008060000000000000000040000000100D6
:1027F000000000000000C4000600100C00000000F3
:1028000000000000040000000100000001000000C2
:1028100042000C0030180000000000000000020020
:10282000000000800000000000006000180020F0A0
:1028300000000000000000000600000000C00000D2
:1028400001000000200FE0000780000000000000F1
:1028500000000200000000400000020000002018FC
:1028600000007C00000000000000000002000000EA
:102870000060000001000000102000004000000087
:102880000000000000000300000000200000020023
:1028900048656C6C6F20776F726C642100000000DB
:1028A0004C6F6F6B20617420746869732065787455
:1028B00072656D616C6C7920736C6F7720736372D5
:1028C00065656E203A28000073657269616C206945
:1028D0006E7465726661636520746F74616C6C7987
:1028E00020535558580000002E2E2E20616E642073
:1028F00036354B20636F6C6F7273206F6E6C79206E
:102900002E2E2E002863292044696D6F6E00000072
:1029100000366E0100000000000000000102030408
:042920000607080995
:0400000508000000EF
:00000001FF
