:020000040800F2
:100000004804002091080008D9070008D907000813
:10001000D9070008D9070008D90700080000000028
:10002000000000000000000000000000D9070008E8
:10003000D907000800000000D9070008D907000808
:10004000D9070008D9070008D9070008F5070008F4
:10005000D9070008D9070008D9070008D907000800
:10006000D9070008D9070008D9070008D9070008F0
:10007000D9070008D9070008D9070008D9070008E0
:10008000D9070008D9070008D907000800000000B8
:10009000000000000000000000000000D907000878
:1000A000D90700088D020008D9070008D907000801
:1000B000D90700082105000899040008D90700089D
:1000C000D9070008D9070008D9070008D907000890
:1000D000D9070008D9070008D9070008D907000880
:1000E000D9070008D9070008D90700080000000058
:1000F0000000000000000000000000000000000000
:1001000000000000000000000000000000000000EF
:100110000000000000000000D9070008D90700080F
:100120005FF808F14FF48053C4F20203DA694FF02C
:10013000804142F00102DA610B8882B023F45C72E4
:1001400013041A0C4FF6FF730A808B8517220123C4
:100150000A858B820A8893B243F001020A808B8C55
:100160009AB201928B8C019A9BB29B1A83424FF0F8
:100170008042F7D910884FF4805120F00103180411
:10018000030C1380C4F20201CA6922F00100C861A5
:1001900002B0704738B54FF44063C107C4F20103A1
:1001A0004FF400424FF440614CBF1A615A61C4F2EF
:1001B000010185074FF480444FF440654CBF0C614A
:1001C0004C614FF400534407C4F201054FF44064FE
:1001D0004CBF2B616B614FF480520107C4F20104E4
:1001E0004CBF226162614FF44064C4F201044FF4D9
:1001F000806504202561FFF795FF04206561BDE857
:100200003840FFF78FBF00BF70B54FF44064C4F2B1
:1002100001044FF40065064625610009FFF7BAFFA7
:100220003046FFF7B7FF2C206561BDE87040FFF74F
:1002300079BF00BF38B54CF6CD44CCF6CC4405466A
:10024000A4FB0030C40804F13000FFF7DDFF04EB2D
:100250008404A5EB440505F13001C8B2BDE838407F
:10026000FFF7D2BF4FF44063C4F201034FF40062C2
:1002700010B504465A610009FFF78CFF2046FFF7CE
:1002800089FF2820BDE81040FFF74CBF2DE9F04161
:1002900084B072B64FF48843C4F201031A8A998974
:1002A000D00789B201D5CA0703D462B604B0BDE84D
:1002B000F081574F4FF6FE7238681A8200285FD1DE
:1002C0007B68002B42D0534EF588B26895423DD0F2
:1002D000C020FFF7C7FF504901AC03C984E8030001
:1002E000ECB20DF1030004F001033033640800F8B0
:1002F000013FF8D19DF80B00FFF786FF9DF80A003B
:10030000FFF782FF9DF80900FFF77EFF9DF80800C8
:10031000FFF77AFF9DF80700FFF776FF9DF80600CC
:10032000FFF772FF9DF80500FFF76EFF9DF80400D0
:10033000FFF76AFF4FF48051C4F201014FF480725D
:100340003F2D7C60B56014BF0A614A61387A00288D
:10035000ABD0304CC820FFF785FF207BFFF76AFF4A
:100360003A20FFF751FF607BFFF764FF3A20FFF769
:100370004BFFA07BFFF75EFF254B0021197294E72E
:10038000DFF890808020FFF76DFF0024D8F8003060
:1003900001AE224800E0144603F00F05415D621CE7
:1003A0001B093155F7D104A8A51C30238218411927
:1003B000782002F80C0C184601F80C3CEB070AD523
:1003C000FFF722FF651C0AD4705D04E0705D013DFB
:1003D000FFF71AFF705DFFF717FF013DF6D52020EC
:1003E000FFF712FF98F80440012C0CD03E20FFF7D5
:1003F0000BFF0B4C2020FFF707FF14F8010F00281C
:10040000F9D138605CE73C20FFF7FEFEF1E700BF62
:100410000000002030000020140D0008300D0008FE
:10042000200D00084FF48053C4F20203DA694FF044
:10043000804142F00102DA610B8882B023F45C72E1
:1004400013041A0C4FF6FF730A808B8545F6BF52D2
:1004500001230A858B820A8893B243F001020A8045
:100460008B8C9AB201928B8C019A9BB29B1A83421D
:100470004FF08042F7D910884FF4805120F00103EB
:100480001804030C1380C4F20201CA6922F00100AF
:10049000C86102B0704700BF10B472B64FF4006379
:1004A000C4F200031A8A9989D00789B201D5CA0714
:1004B00002D462B610BC70474FF40062C4F201026D
:1004C000012002214FF6FE741C8250611161936875
:1004D0001061516103FA00F192680F4B01F038048A
:1004E000C2F3820222435C6911B2A14205D00B48DB
:1004F00000221A6142605961DBE71C690134012C5A
:100500001C6105D900241C61044CDA806060F2E7AC
:10051000024A00205060EEE730000020000000207A
:1005200072B64FF48063C4F200031A8A9989D00727
:1005300089B201D5CA0701D462B670474FF6FE7082
:1005400018821A88094B82F01001C1F3001018714B
:1005500038B91A68511C1960054B0121196062B63F
:1005600070471868421E1A60F6E700BF300000208E
:1005700000000020CA7830B4D30648BF8B7802F060
:100580000F0448BF1C430B8813F0FF0F2FD013F04C
:100590000105016840F0EC8003F00205ADB2002DCA
:1005A00040F0D08003F00405ADB2002D40F0D580BE
:1005B00003F00805ADB2002D40F0988003F010055F
:1005C000ADB2002D40F09D8003F02005ADB2002DAE
:1005D00040F0A28003F04005ADB2002D40F0A780AE
:1005E00003F08005ADB2002D40F0CD800160FF2BFF
:1005F00028D903F480718DB24168002D2DD103F408
:100600000075ADB2002D33D103F48065ADB2002D7D
:1006100039D103F40065ADB2002D3FD103F480550C
:10062000ADB2002D44D103F40055ADB2002D49D137
:1006300003F48045ADB2002D4ED103F400439BB2CC
:1006400013B9416030BC7047282A64F31F7100F071
:10065000B080482A08BF0361F3E721F00F01282A80
:1006600044EA010100F0A380482AC8D10561C6E729
:1006700021F0F001282A41EA041100F09680482A6E
:10068000C2D10561C0E721F47061282A41EA042142
:1006900000F08980482ABCD10561BAE721F4704195
:1006A000282A41EA04317CD0482AB7D10561B5E750
:1006B00021F47021282A41EA044170D0482AB2D19D
:1006C0000561B0E721F47001282A41EA045164D0A1
:1006D000482AADD10561ABE721F07061282A41EAD3
:1006E000046158D0482AA8D10561A6E721F47041D9
:1006F000282A41EA043168D0482A7FF45FAF0561B7
:100700005CE721F47021282A41EA04415BD0482AA1
:100710007FF45AAF056157E721F47001282A41EAB6
:10072000045156D0482A7FF455AF056152E721F0B5
:100730007061282A41EA046149D0482A7FF450AF09
:1007400005614DE721F0F001282A41EA041138D073
:10075000482A7FF427AF056124E721F47061282A35
:1007600041EA04212BD0482A7FF422AF05611FE71C
:1007700021F00F01282A44EA01011CD0482A7FF405
:100780000BAF056108E7282A64F31F7115D0482ACA
:1007900008BF05612AE745614FE7456148E74561C4
:1007A00041E745613AE7456133E745612CE745613B
:1007B00025E7436145E74561EEE6456116E745619A
:1007C000F6E64561EEE64561FEE64561F6E6456121
:1007D00006E74561FEE600BFFEE700BF4FF420528A
:1007E000C4F20002938803F0200081B20029F9D0FE
:1007F000704700BF70B572B64FF42054C4F20004C5
:10080000A288238890B2D90701D5C20701D462B665
:1008100070BDA18821F001052E04320CA280FFF7E3
:10082000DDFF4FF48050C4F20100C16848F689032F
:1008300081F40075C560A68B248BB2B242EA0440F5
:10084000C8F68803A3FB00156A09A3FB02134AF646
:10085000AB215B09CAF6AA21A1FB03160A49340998
:10086000C2EB0216C3EB0315A0EB860004EB4404B5
:10087000A2EB8502A3EBC403887304484A730B738D
:100880000121017262B670BD30000020000000201E
:1008900000B55349534B83B099421BD2DA1C0C1D4F
:1008A000151B514825F00302161D05680423B342A9
:1008B0000D60C2F380020DD022B145680823B34217
:1008C000256007D01D581A1D5D5084580833B34267
:1008D0008C50F7D1454846494FF000028842B8BFD6
:1008E00040F8042BFFF6FAAF4FF48056C4F202062C
:1008F0003168002041F0010333607268CFF6FF00D9
:10090000104070603568002425F0847121F4803037
:10091000306033684FF41F0023F480223260756822
:10092000324625F4FE017160B060F46200940194D7
:10093000346844F48033336003E0009BB3F5A06F68
:1009400009D0166806F4003501950099481C0090FE
:10095000019C002CF1D04FF48052C4F202021668C0
:1009600016F400350DD001210191019801280AD01B
:100970004FF46D46CEF200064FF00062B26000F018
:1009800039F80195F1E74FF48054C4F2020463682A
:10099000264663606268626065686560616821F42C
:1009A0007C106060636843F498126260256845F0CB
:1009B0008071216034684FF48050A201C4F20200BB
:1009C000F8D54668024626F003034360456845F0C3
:1009D00002014160546804F00C000828FAD1C7E70E
:1009E0000000002030000020440D000830000020EE
:1009F0004800002080B54FF48054C4F20204A3697B
:100A000082B04FF0040843F004014FF40060012667
:100A10000225A161C4F201000DEB08018DF806501A
:100A2000ADF804608DF80780FFF7A4FD4FF4006077
:100A3000C0224FF04809C4F201000DEB0801ADF8E7
:100A400004208DF807908DF80650FFF793FD4FF4C2
:100A5000006003271423C4F201000DEB08018DF898
:100A60000730ADF804708DF80650FFF783FD4FF4A2
:100A700000601C22C4F201000DEB0801ADF8042057
:100A80008DF807908DF80650FFF774FDA1694FF4BB
:100A9000406041F008034FF01009A3614FF47C421D
:100AA000C4F201000DEB0801ADF804208DF80650EA
:100AB0008DF80790FFF75EFDA1694FF4805041EA81
:100AC0000903A3614FF440720DEB0801C4F2010069
:100AD000ADF804208DF806508DF80790FFF74AFD19
:100AE0001E20FFF79FFC3846FFF754FB0520FFF759
:100AF00099FC3846FFF74EFB9620FFF713FB38466C
:100B0000FFF748FB2846FFF745FB2820FFF7AAFB25
:100B10000C20FFF7A7FB0620FFF7A4FB3046FFF7EA
:100B2000A1FB2846FFF77EFC2846FFF79BFB2846E3
:100B3000FFF778FCE0694FF480632843E061C4F27A
:100B400000031988002521F45C7202FA09F020FAEA
:100B500009F141EA09021A80A3F82C801D859E82C2
:100B600018891A8B198C22F4407222F0030220F0AB
:100B7000070002FA09F221F0220100FA09F001FA55
:100B800009F122FA09F221FA09F120FA09F042F4F6
:100B900080723843324341F0AA0718811A831F84B8
:100BA00098894FF4614182B2CEF2000132434FF096
:100BB00000579A810F6018884FF4006287B237435C
:100BC0001F80E369C4F2000243EA0800E06117886D
:100BD00045F6BF5027F45C7303FA09F727FA09F3C7
:100BE0000A27138097851085968293899FB2374391
:100BF0004FF0804397810B6017884FF48843BFB252
:100C000037431780A269C4F2010342F40037A76199
:100C10001A8822F4407707FA09F222FA09F73222F9
:100C20001F809A8518851D869E8298894FF00072D4
:100C300087B237439F810A60198820208FB23743DB
:100C40001F80E369C4F20E2043F0C052E2610660E7
:100C5000216A0F0414D54FF42056C4F200063388DD
:100C60004FF4614499B241F001003080FFF7B6FDC6
:100C7000CEF20004F022082584F803232560FEE765
:100C80004FF48150C4F20200057005700670266AA8
:100C9000B507FCD54FF48054C4F20204256A4FF422
:100CA0008057E807C4F20207F8D53B6A40F23C419E
:100CB00043F48070C4F242214FF42052012638627E
:100CC000C4F200020E609488154624F008073B0425
:100CD000190C9180A8884FF4205600F0080294B2B5
:100CE000C4F20006002CF5D0FFF778FDB58800218E
:100CF000AFB247F010034FF40040B3803181B081B0
:100D0000B28822F0100425042F0CB780FFF766FD8F
:100D1000A1E700BF3030303030303030000000000C
:100D20002020202020202020202020202000000023
:100D30003031323334353637383941424344454611
:040D400000000000AF
:100D4400010000000100000001000000000000009C
:100D54000000000001020304060708090000000067
:100D64000102030401020304060708090204060839
:04000005080009F5F1
:00000001FF
